:1000000005C1000034C1000032C1000030C1000051
:100010002EC100002CC100002AC1000028C1000030
:1000200026C1000024C1000022C1000020C1000040
:100030001EC100001CC100001AC1000018C1000050
:1000400016C1000014C1000012C1000010C1000060
:100050000EC100000CC100000AC100000C94E9258B
:1000600006C100000C9411290C94472900C100001E
:10007000FEC00000FCC00000FAC00000F8C0000094
:10008000F6C00000F4C00000F2C00000F0C00000A4
:100090000C949D290C94D329EAC00000E8C000000C
:1000A000E6C00000E4C00000E2C00000E0C00000C4
:1000B000DEC00000DCC00000DAC00000D8C00000D4
:1000C000D6C00000D4C000000C9499220C94292AB8
:1000D0000C945F2ACCC000000C94B52A0C94EB2A37
:1000E000C6C0000000000A0B02090C0D0E08070331
:1000F00004010000000000000000000000000000FB
:1001000000000000000000000000000000000000EF
:1001100012111000000000000000000000000000AC
:100120000000000000000000000001021020200874
:100130000810204010204080020102010804020142
:1001400001020408102040808040201008040201B1
:10015000800402018040201008040201080402010A
:100160000102040810204080010204081020408091
:1001700005050505070508080808020202020A0A23
:100180000808040404040101010101010101030341
:10019000030303030303040707070C0C0C0C0C0CEC
:1001A0000C0C0202020206060606060606060B0BE9
:1001B0000B0B0B0B0B0B000020002300260029006B
:1001C0002C002F003200000100000301060109018C
:1001D00000002200250028002B002E0031003400F2
:1001E00002010000050108010B01000021002400AC
:1001F00027002A002D003000330001010000040117
:1002000007010A017029FC29882A142B11241FBE1A
:10021000CFEFD1E2DEBFCDBF00E00CBF12E0A0E027
:10022000B2E0E8E8F7E500E00BBF02C007900D92EE
:10023000A83CB107D9F727E0A8ECB2E001C01D92B5
:10024000A23CB207E1F711E0C6E0D1E000E006C051
:1002500021970109802FFE010E94912BC230D10706
:1002600080E00807A9F70E94B3230C94C22BC8CEE4
:10027000CF92DF92EF92FF920F931F93E82FF92F07
:1002800005C0015011092109310961F190819623BE
:100290009417B9F305C0015011092109310911F171
:1002A000908196239413F7CFC12CD12CE12CF12C03
:1002B0000AC08FEFC81AD80AE80AF80A0C151D05FB
:1002C0002E053F0579F080818623841791F36C2DEC
:1002D0007D2D8E2D9F2D1F910F91FF90EF90DF9020
:1002E000CF90089560E070E080E090E01F910F9162
:1002F000FF90EF90DF90CF900895CF93C62F61E0ED
:100300000E94562760E08C2FCF910C9456274F9275
:100310005F926F927F92AF92BF92CF92DF92EF92F5
:10032000FF920F931F93CF93DF935C01162FC42F7F
:10033000D22F611104C061E0842F0E94562760E033
:100340008C2F0E9492270E9433262B013C010E9491
:100350003326641975098609970966307105810588
:100360009105A8F361E08C2F0E9492270E9433260A
:100370002B013C01C02ED12CF12CE12C0E94332604
:100380006419750986099709C616D706E806F9069D
:10039000A8F760E08C2F0E949227111104C060E042
:1003A0008D2F0E94562720E432E44FE050E061E0B8
:1003B0008D2F0E94BF27F501608371838283938311
:1003C000DF91CF911F910F91FF90EF90DF90CF9031
:1003D000BF90AF907F906F905F904F90089590E0A6
:1003E00080E008950F931F93009709F483C061156F
:1003F000710509F47FC000910C0210910D0220914B
:100400000E0230910F020E3F1F4F2F4F3F4F09F04A
:1004100062C04FEF5FEFBA0140930C0250930D02A0
:1004200060930E0270930F0240910C0250910D02E6
:1004300060910E0270910F02DC011296ED91FC9119
:1004400080819181A281B3818093320390933303A1
:10045000A0933403B093350384819581A681B7813D
:1004600080932E0390932F03A0933003B093310316
:1004700080859185A285B38580932A0390932B0371
:10048000A0932C03B0932D0384859585A685B7850D
:100490008093260390932703A0932803B093290306
:1004A000109222031092230310922403109225032A
:1004B0006CD48AEE96E09093C9028093C80254D31C
:1004C000009731F421E030E0309337032093360376
:1004D0001F910F91089500910C0210910D0220912F
:1004E0000E0230910F02DB010D931D932D933C936F
:1004F00013979ACF8FEF9FEFEBCF8F929F92AF9290
:10050000BF92CF92DF92EF92FF921F93CF93DF9330
:100510004B015C011091390382E090E09093370326
:100520008093360381149104A104B10441F48091B5
:100530003903811104C080913803C1E08111C0E00A
:10054000C12CD12C760180913903811106C0809194
:100550003803811102C0CC23D1F083E090E0909366
:10056000370380933603CC2371F1CCE9DFEF11110F
:1005700001C094D7CE01DF91CF911F91FF90EF90F2
:10058000DF90CF90BF90AF909F908F9008956AE0DA
:1005900070E080E090E00E94582680E1C80E87E27B
:1005A000D81EE11CF11C8FEF88169806A806B80625
:1005B00031F0C1E08C149D04AE04BF0408F0C0E02B
:1005C00080E006D3C0CFD0E0C0E0D1CFCF92DF92A1
:1005D000EF92FF921F93CF93DF938F3F910511F01E
:1005E00008F04BC02091360330913703233031059A
:1005F00039F020913603309137032130310531F441
:1006000024E030E030933703209336036A017B0106
:10061000EC01892B99F011E0AE01C701B601A3D21C
:10062000AB01BC01CE011123E1F0DF91CF911F910D
:10063000FF90EF90DF90CF900C94770C8091C802E0
:100640009091C902892B39F30E94810C029719F706
:10065000E091C802F091C90290E080E01995182F4E
:10066000DBCF0E94990C90E080E0DF91CF911F9149
:10067000FF90EF90DF90CF9008958FEF9FEFF5CF31
:1006800080E0A6C2CF93DF9386E090E0909337039B
:1006900080933603F6D2EC011092C9021092C80280
:1006A00095D61092370310923603CE01DF91CF9189
:1006B00008958091380308958091210308956093EF
:1006C0000C0270930D0280930E0290930F0290E043
:1006D00080E008954F925F926F927F928F929F92E7
:1006E000AF92BF92CF92DF92EF92FF920F93CF9390
:1006F000DF9300D01F92CDB7DEB78091B80781118C
:100700001092B8070AE025E343E361E0CE010196C9
:10071000FEDD69817A818B819C810E94D0242EEA42
:1007200034ED43EB59E30E94862520E030E040E0C1
:100730005FE30E94862520910002309101024091E2
:100740000202509103020E948625209104023091FA
:10075000050240910602509107020E9486252091D1
:1007600008023091090240910A0250910B020E9446
:100770003C246093BC077093BD078093BE079093A1
:10078000BF07C090F402D090F502E090F602F0901E
:10079000F7028FEFC81AD80AE80AF80AC092F402E2
:1007A000D092F502E092F602F092F702C114D10461
:1007B000E104F10499F48091F8029091F902A0917A
:1007C000FA02B091FB020196A11DB11D8093F802BF
:1007D0009093F902A093FA02B093FB028090FC027E
:1007E0009090FD02A090FE02B090FF026091F8028E
:1007F0007091F9028091FA029091FB020E94D0243C
:10080000A50194010E94862520E030E040E85FE4E5
:100810000E9486252B013C01C701B6010E94D0240D
:10082000A50194010E9486259B01AC01C301B20180
:100830000E943C246093F0027093F1028093F202D4
:100840009093F3020F900F900F900F90DF91CF9144
:100850000F91FF90EF90DF90CF90BF90AF909F905F
:100860008F907F906F905F904F900895CF93DF931C
:10087000EAEDF2E08BE2DF011D928A95E9F780E074
:1008800090E0A0E8BFEB86A397A3A0A7B1A78AE05A
:1008900097EDA3EABCE382A393A3A4A3B5A385EC3D
:1008A0009DE4A6E7B4E784839583A683B78388EBAA
:1008B00094E9A0E6B0E980879187A287B3878CEAA4
:1008C0009CE2A0E5BEEB84879587A687B78784EB7B
:1008D00093E8ACE6BAE7808B918BA28BB38BAEEC3E
:1008E000B2E0B383A283EAECF2E01196FC93EE93BC
:1008F00089E292E091838083938382838EEE92E0FB
:1009000015969C938E9314978EED92E013969C937C
:100910008E93129780EF92E017969C938E93169782
:1009200084E0ECEBF7E0DF01982F1D929A95E9F750
:10093000E8EBF7E0DF011D928A95E9F7C4EBD7E019
:1009400081E08F8381E090E0A0E0B0E0888399832C
:10095000AA83BB8365E383E3D0DC1C82DF91CF9164
:10096000089508954F925F926F927F928F929F9217
:10097000AF92BF92CF92DF92EF92FF920F931F93AD
:10098000F8944090110350901203609013037090FC
:100990001403C0900503D0900603E0900703F09085
:1009A0000803452B09F0A4C09B01AC0124193509AB
:1009B0004609570929013A0100910D0310910E03D0
:1009C00020910F033091100348015901840C951CAC
:1009D000A61CB71C80169106A206B306A0F40091CF
:1009E000090310910A0320910B0330910C030F5F50
:1009F0001F4F2F4F3F4F0093090310930A0320937B
:100A00000B0330930C0380920D0390920E03A0927F
:100A10000F03B09210030091090310910A03209173
:100A20000B0330910C038092150390921603A09251
:100A30001703B09218030093190310931A0320931D
:100A40001B0330931C036093110370931203809374
:100A5000130390931403A0E2BEE4A30192010E9449
:100A6000992B6C0D7D1D8E1D9F1D6093050370934A
:100A70000603809307039093080300910C021091E2
:100A80000D0220910E0230910F020F3F1F4F2F4F8A
:100A90003F4FF1F000910C0210910D0220910E02D7
:100AA00030910F020E3F1F4F2F4F3F4F89F0C090E4
:100AB0000C02D0900D02E0900E02F0900F0221E0A7
:100AC0008C149D04AE04BF0408F420E0209321039D
:100AD00078941F910F91FF90EF90DF90CF90BF908F
:100AE000AF909F908F907F906F905F904F90089500
:100AF0004B015C0184189508A608B708A301920170
:100B0000261B370B480B590B641575058605970591
:100B1000D0F082169306A406B50640F420E030E03B
:100B2000A90181149104A104B10491F4A0E2BEE4EE
:100B30000E94992BA7019601261B370B480B590BD6
:100B4000CA01B901C5CF82169306A406B50670F78F
:100B5000A0E2BEE4A50194010E94992B6C0D7D1DBD
:100B60008E1D9F1DB5CFFECECF93DF9300D01F9279
:100B7000CDB7DEB71C821B821A82198210921D0328
:100B800010921E0310921F0310922003BE016F5F8C
:100B90007F4FCE0103960E94682269817A818B8102
:100BA0009C810E94901B009761F4BE016F5F7F4F94
:100BB000CE0103960E94742269817A818B819C8187
:100BC0002ED50F900F900F900F90DF91CF91089539
:100BD000FF920F931F93CF93DF93082F60E070E095
:100BE000CB010E945826FF24F3940E94791AEC014D
:100BF000892B89F010E0CE3F8FEFD80769F00023F2
:100C000061F160E070E0CB010E94582681E090E045
:100C1000892B59F322C011E025D5EC01892B21F055
:100C2000CE3F8FEFD80759F711111EC011E0229661
:100C300009F410E00E94291AEC01892B21F0CE3F23
:100C40008FEFD807E1F6111111C011E0CE3F8FEF01
:100C5000D80709F410E001110BC0CE01DF91CF914C
:100C60001F910F91FF90089511E0E4CF11E0F3CFB1
:100C700060E070E0CB010E9458261F25812F90E094
:100C8000C7CFCF93DF9380912103882321F060E0C9
:100C900070E0CB014CD635D6D0E0C0E0892B71F0A6
:100CA0006AE070E080E090E00E94582681E090DFEA
:100CB00028D62196C03D27E0D20781F727D60E948B
:100CC000E41B1092390310923803109232031092F1
:100CD0003303109234031092350310922E031092B6
:100CE0002F03109230031092310310922A031092B6
:100CF0002B0310922C0310922D03109226031092B6
:100D000027031092280310922903109222031092B5
:100D1000230310922403109225034EEF5FEF6FEF31
:100D20007FEF40930C0250930D0260930E0270937C
:100D30000F0210922103E5E1F3E028E0DF011D92AC
:100D40002A95E9F7109211031092120310921303DF
:100D50001092140310920D0310920E0310920F03C1
:100D6000109210031092090310920A0310920B03C1
:100D700010920C03109205031092060310920703C1
:100D800010920803DF91CF910895109245031092BD
:100D90004603109247031092480310924403809137
:100DA0004D0390914E03909343038093420310921E
:100DB00041031092400310923C0310923D031092A5
:100DC0003E0310923F0310924A031092490390E0B1
:100DD00080E00895CF92DF92EF92FF920F931F93DE
:100DE000CF938C01892B09F055C020914D03309190
:100DF0004E03809142039091430340914D035091E3
:100E00004E0350934303409342032817390781F060
:100E1000109241031092400310923C0310923D0344
:100E200010923E0310923F0310924A03109249031E
:100E300080914D0390914E03019761F58091490394
:100E400090914A03892B21F480911002811112C0E4
:100E50008091490390914A030197E1F480913C030A
:100E600090913D03A0913E03B0913F030197A105EE
:100E7000B10581F410923C0310923D0310923E03A1
:100E800010923F031092100282E090E090934A0388
:100E90008093490380914D0390914E03019709F08F
:100EA0001CC180916303909164038017910709F03E
:100EB00014C180915F0390916003A0916103B09190
:100EC0006203009709F409C120915E0321110DC04E
:100ED00040915F03509160036091610370916203E0
:100EE000452B462B472B09F4F8C02091490330913C
:100EF0004A032230310509F0F0C02091400321114E
:100F0000ECC0FC01C080D180E280F380809144037A
:100F1000882309F4D3C08091500390915103892B09
:100F200009F4FDC0209150033091510381E022303B
:100F3000310509F080E02091500330915103C1E068
:100F40002130310549F02091500330915103C1E027
:100F50002230310509F0C0E0882309F456C0209101
:100F60005A0330915B0340915C0350915D03C701CC
:100F7000B6010E94822587FD14C020915A0330914A
:100F80005B0340915C0350915D0360914503709158
:100F9000460380914703909148030E94A02487FD57
:100FA00022C020915A0330915B0340915C03509121
:100FB0005D03C701B6010E948225181634F5209101
:100FC0005A0330915B0340915C0350915D03609143
:100FD00045037091460380914703909148030E9416
:100FE000A024811112C08091520390915303A091CB
:100FF0005403B0915503892B8A2B8B2B19F481E074
:101000008093410381E080934003CC2309F456C0D0
:1010100020915A0330915B0340915C0350915D0332
:10102000C701B6010E94A02487FF14C020915A0373
:1010300030915B0340915C0350915D0360914503E7
:101040007091460380914703909148030E94822546
:1010500087FF22C020915A0330915B0340915C03CB
:1010600050915D03C701B6010E94A024811126C0E2
:1010700020915A0330915B0340915C0350915D03D2
:101080006091450370914603809147039091480316
:101090000E948225181694F4809152039091530374
:1010A000A0915403B0915503892B8A2B8B2B19F4F3
:1010B00081E08093410381E08093400381E090913F
:1010C0004003911180E080934403C0924503D09285
:1010D0004603E0924703F0924803012B09F067C1F1
:1010E0008091490390914A03892BD9F410924F03C0
:1010F0001092400380911002882379F082E090E002
:1011000090934A03809349031092100220914D035B
:1011100030914E0381E0232BE9F080E01BC081E099
:101120000ACF1092100280914F03882349F0109249
:10113000410310924A031092490310924F03EDCFDE
:1011400080914D0390914E03892BE1F080914003F3
:10115000109240032091490330914A032230310517
:1011600009F45EC088F42115310509F448C0213026
:10117000310509F4F3C0109241031092400310921C
:101180004F0338C081E0E6CF2330310509F4B1C008
:101190002430310581F740913C0350913D0360912B
:1011A0003E0370913F03411551056105710561F0E2
:1011B000415051096109710940933C0350933D032B
:1011C00060933E0370933F0340913C0350913D0375
:1011D00060913E0370913F03452B462B472BD9F47A
:1011E00020914B0330914C032130310509F046C06A
:1011F0001092410310924A03109249030CC080914F
:101200001002882341F082E090E090934A0380939B
:1012100049031092100210923A0380914103CEC00C
:101220008823C9F38091520390915303A0915403F2
:10123000B0915503181619061A061B060CF07DC04E
:1012400080914D0390914E03019709F076C08091F3
:10125000520390915303A0915403B091550380938E
:101260003C0390933D03A0933E03B0933F0383E080
:1012700090E090934A0380934903CDCF4091560369
:10128000509157036091580370915903452B462B99
:10129000472BA9F010924103809156039091570378
:1012A000A0915803B091590380933C0390933D0360
:1012B000A0933E03B0933F0381E090E0DACF882310
:1012C00099F08091110290911202A0911302B091B5
:1012D000140280933C0390933D03A0933E03B0938C
:1012E0003F0384E090E0C5CF1092410382E090E09C
:1012F000C0CF80913C0390913D03A0913E03B091FB
:101300003F030097A105B10559F00197A109B10963
:1013100080933C0390933D03A0933E03B0933F031F
:1013200080913C0390913D03A0913E03B0913F0317
:10133000892B8A2B8B2B09F06ECF80911102909113
:101340001202A0911302B0911402892B8A2B8B2BCD
:1013500009F44ECF81E080934103B3CF40913C0329
:1013600050913D0360913E0370913F03411551053B
:101370006105710561F0415051096109710940939E
:101380003C0350933D0360933E0370933F034091B1
:101390003C0350913D0360913E0370913F03452B08
:1013A000462B472B09F037CF8111C7CF9FCF8091B4
:1013B0003A03882309F431CF80913B03CF911F91E9
:1013C0000F91FF90EF90DF90CF900895109245031A
:1013D0001092460310924703109248031092440360
:1013E00010924A0310924903109243031092420351
:1013F0001092640310926303109241031092400311
:1014000010923C0310923D0310923E0310923F0352
:1014100010923B0310923A0310925F031092600304
:10142000109261031092620310925E0310925A03AD
:1014300010925B0310925C0310925D0388EE93E0C0
:10144000A0E0B0E08093110290931202A0931302E7
:10145000B09314021092560310925703109258033F
:101460001092590310925203109253031092540396
:1014700010925503109251031092500381E0809313
:10148000100210924F0310924E0310924D031092CF
:101490004C0310924B0390E080E0089580914D033F
:1014A00090914E03892B19F580911002882351F0F9
:1014B00080914F03811106C081E080933B038093AC
:1014C0003A03089520914F033091100281E090E09B
:1014D000332311F090E080E030E082239323892BC6
:1014E00021F010923B0381E0EACF10923A03089575
:1014F00082E090E0FA01918380838FEF9FEF08955F
:10150000CF93DF93EA01009711F00E94121D198218
:10151000188290E080E0DF91CF910895DB01009781
:1015200019F48FEF8C9308952EEF2C93FC013F96C6
:10153000EF30F10508F034C08827EE55F54F8F4F96
:101540000C94912BCE0ACC0ACA0AC80AC60AC20A4F
:10155000C40AC00ABE0ABC0AB90AB50AB10AB70A67
:10156000D00A80E311968C93089589E2FBCF82E242
:10157000F9CF11961C92089583E2F4CF81E2F2CF65
:1015800081E1F0CF87E2EECF8AE2ECCF80E1EACFD3
:1015900084E2E8CF88E2E6CF86E2E4CF81E3E2CFDF
:1015A00080E2E0CF8091710390917203089590934F
:1015B0007203809371030895809170030895909150
:1015C0007003892B809370030895982F90958091D4
:1015D0007003892380937003089580916F030895A9
:1015E00080916D0390916E0308956115710559F016
:1015F000FB0130E020E070E060E02417350719F0CF
:101600006115710511F0CB010895A081B181A81772
:10161000B90709F4BF012F5F3F4F3696EECF809197
:10162000730381111CC060D266D2909366038093CD
:1016300065030E9412150E94241590936A038093FB
:1016400069030E9491190E949819909368038093EE
:10165000670381E08093730390E080E0089584EF56
:101660009FEF08958F929F92AF92BF92CF92DF9299
:10167000EF92FF920F931F93CF93DF9300D000D090
:1016800000D01F92CDB7DEB71A86198618861F8242
:101690001E821D821C821B821A8219828091730312
:1016A00007EF1FEF882309F49CC08E010D5F1F4FC9
:1016B0009E012B5F3F4FAE01495F5F4FBE01675FE9
:1016C0007F4F90E080E00E94151B8C01009721F075
:1016D0000596029708F0DBC029853A85211531056A
:1016E00009F402C1ED80FE804B815C81B701640F7B
:1016F000751F8F8198858617970708F4F5C0E20E4D
:10170000F31ED7019C91903C09F07FC042305105F7
:1017100008F47BC011968C91409171035091720333
:10172000452B09F49CC0913F08F071C02CE1290FB2
:101730002D3008F48BC02DE2290F203108F489C028
:10174000903C21F48150823008F483C088E3890FF3
:101750008B3008F481C09EE8C92E9AE0D92EE8E7C4
:10176000FAE06D817E81AE014F5F5F4F89859A857A
:1017700019955C01C114D104A1F189809A8081146A
:10178000910479F18B819C818815990508F487C0B3
:1017900010E000E04B815C8170E060E0C7010E94D6
:1017A000BB2B01151105E9F449815A8169857A85B8
:1017B0008D819E81680F791FC501F6011995E98019
:1017C000FA800D811E812F81388549855A856FEFFA
:1017D0007FEF81E090E00E94B01A8C01892B09F024
:1017E00056C0C8012A960FB6F894DEBF0FBECDBF13
:1017F000DF91CF911F910F91FF90EF90DF90CF90ED
:10180000BF90AF909F908F90089580E085CF30E09B
:1018100020E0220F331FF901EB59FC4F0190F081BA
:10182000E02D309709F497CF892F90E01995009714
:1018300009F491CFDC011296ED91FC911397149667
:10184000CD90DC90309709F08CCF1FC021E030E0C4
:10185000E0CF22E030E0DDCF23E030E0DACFD12C62
:10186000C12CE0E8FAE09F3F09F07BCFE0916503EF
:10187000F0916603309721F4C90104EF1FEF0CC00B
:101880008FEF90E019950097A9F604EF1FEF898577
:101890009A85009709F4A5CF0E94121DA2CF0E943D
:1018A000DF1B8C0189859A850E94121D70E060E023
:1018B000C4010E94781B98878F830E94AD1A9E8373
:1018C0008D836F8178856115710559F0C8010E947B
:1018D0009E1E9A87898706EF1FEF892B09F058CF44
:1018E00059CF08EF1FEF56CF08EF1FEFD0CF209151
:1018F0007303222319F020E00C94291587EF9FEF42
:101900000895809171039091720308950E949D192A
:101910000E94F718F5D0E5E6F3E088E0DF011D92BC
:101920008A95E9F71092730390E080E008950C9493
:10193000571721E040E050E0BA010C94291586E0E9
:1019400090E0FA019183808390E080E0089547E081
:1019500050E06CE272E049CEDF92EF92FF920F937B
:101960001F93CF93DF938A01EC01C60FD71FE0903E
:101970007703F0907803D9800E94C71BD816190608
:1019800078F082E090E0F801918380838EEF9FEF02
:10199000DF91CF911F910F91FF90EF90DF9008950D
:1019A000EF2841F482E090E0F8019183808384EF96
:1019B0009FEFEECF89818093760390E00196F80146
:1019C0009183808390E080E0E3CFCF93DF93EA01BF
:1019D0000E940818882321F00E94D41B0E94091835
:1019E00082E090E0998388838BEF9FEFDF91CF9126
:1019F0000895CF93DF93EB0186E0FB0111928A9566
:101A0000E9F78FEF8883D8DD8983E7DD8A83E8DD16
:101A10009D838C83DF91CF910895CF93DF93EA016B
:101A20000E940B18811109C082E090E0998388839D
:101A300085EF9FEFDF91CF91089590E080E0B7DDD3
:101A400081E090E09983888390E080E0F3CF0F936A
:101A50001F93CF93DF93EA018C01060F171F0E949B
:101A60000B1881110BC082E090E09983888385EF89
:101A70009FEFDF91CF911F910F910895F801818120
:101A8000823038F082E090E0998388838EEF9FEF78
:101A9000F0CF81E090E08BDD88E090E0998388834F
:101AA00090E080E0E6CFCF93DF930097D1F4EB0195
:101AB000FB01329686E0DF011D928A95E9F78FEFF0
:101AC000888385E089831A820E94C71B8B830E94CA
:101AD000C61B9D838C8381E08E838F83DF91CF91A2
:101AE0000895DF91CF911ACD87EA9CE0909375031A
:101AF0008093740308958091740390917503089501
:101B00001092750310927403089580917703909159
:101B100078030895411105C061157105810591058E
:101B200061F06093770370937803809379039093C7
:101B30007A0340937B0381E0089580E00895FF924B
:101B40000F931F93CF93DF938A01EC01C60FD71F2A
:101B5000F9800E94C71BF816190668F082E090E031
:101B6000F801918380838EEF9FEFDF91CF911F91DA
:101B70000F91FF9008956C817D818E819F814B81B3
:101B8000C9DF811108C082E090E0F8019183808371
:101B900084EF9FEFEACF89818093760390E00196EE
:101BA000F8019183808390E080E0DFCFCF93DF93D3
:101BB000EA01FC01E60FF71F648175818681978138
:101BC0004381A8DF811109C082E090E09983888376
:101BD00084EF9FEFDF91CF91089581E090E09983AA
:101BE000888390E080E0F6CFE7E7F3E04081518121
:101BF00062817381480F511D611D711D40835183A6
:101C0000628373830895CF93C09176034C2F50E085
:101C1000609177037091780301960E94B22B8C2F0C
:101C2000E3DF10927603CF910895009799F48091A5
:101C30007703909178032FEFFB012083892B59F0D4
:101C40002091760330E02F5F3F4F2417350719F4BA
:101C5000CB01D9CF63CC0895009799F48091770395
:101C6000909178032FEFFB012083892B59F020916D
:101C7000760330E02F5F3F4F2417350719F4CB016F
:101C8000C2CF4CCC089523E1AC01249FC001259F15
:101C9000900D1124E0918003F0918103E80FF91F6A
:101CA000238134812250310981E02230310508F04E
:101CB00080E008950F931F93CF93DF9300918203E9
:101CC00010918303D0E0C0E080E00C171D0749F4B9
:101CD00091E0811190E0892FDF91CF911F910F91B9
:101CE00008958111F5CFCE01CEDF2196EECFA091E0
:101CF0008003B0918103109729F1209182033091E4
:101D0000830382179307F0F453E1589F9001599F82
:101D1000300D1124A20FB31FED91FC911197309754
:101D200089F012968C91681768F48BE0689FE00D3B
:101D3000F11D112480819181892B21F081E0928114
:101D4000491708F080E008959C0143E1429FC001DB
:101D5000439F900D1124E0918003F0918103E80FDF
:101D6000F91F8385823091F481E090E0658176816E
:101D700040911502509116026417750711F490E016
:101D800080E0892B19F081E0232B09F080E0089591
:101D9000EF92FF920F931F93CF93DF93EA01FC0121
:101DA000E60FF71F02811381E480F5804F2D6E2D21
:101DB000C8019DDF81110DC082E090E09983888386
:101DC0008EEF9FEFDF91CF911F910F91FF90EF90DA
:101DD0000895C80158DF882339F082E090E09983A4
:101DE000888388EF9FEFEECF10931C0200931B02B5
:101DF000E0921D02F0921E0281E090E099838883B8
:101E000090E080E0DFCFCF92DF92EF92FF920F93CE
:101E10001F93CF93DF937A01EC01C60FD71FC090B9
:101E20001B02D0901C0200911D0210911E02412F36
:101E3000602FC6015CDF811110C082E090E0F701E5
:101E4000918380838AEF9FEFDF91CF911F910F9154
:101E5000FF90EF90DF90CF900895C60114DF8823A4
:101E600041F082E090E0F7019183808388EF9FEF5B
:101E7000EBCF4C815D816E817F819A8189818F3F1B
:101E800041F082E090E0F701918380838EEF9FEF35
:101E9000DBCFE3E1EC9D9001ED9D300D1124E0914D
:101EA0008003F0918103E20FF31F0190F081E02D98
:101EB0002BE0029FE00DF11D11240190F081E02D37
:101EC00027E0129FE00DF11D1124808391838B8107
:101ED000828343835483658376831F5F10931E023E
:101EE00081E090E0F7019183808390E080E0ACCFC7
:101EF000EF92FF920F931F93CF93DF937A018C01A0
:101F0000060F171FC0918003D0918103209781F0A5
:101F100021E030E0F8018281938140918203509169
:101F200083038417950710F030E020E0232B71F431
:101F300082E090E0F701918380838EEF9FEFDF9145
:101F4000CF911F910F91FF90EF90089543E1489F2B
:101F50009001499F300D1124C20FD31F94DE8823B6
:101F600041F082E090E0F7019183808388EF9FEF5A
:101F7000E6CFF8012481358120383105C8F6878104
:101F80008111D6CF4181842F90E08F7E009741F060
:101F900082E090E0F7019183808386EF9FEFCFCFBF
:101FA0004F833E832D83268128871986223010F4A3
:101FB00021E0288721E030E0F70131832083BFCF83
:101FC00088E090E0FA019183808390E080E00895BA
:101FD000FB018FEF808381E181838FEF9FEF9383FC
:101FE000828380E890E09583848316821782089527
:101FF000FB018FEF808391E09183828393838483BD
:1020000084E3858381E090E0978386830895DF925F
:10201000EF92FF920F931F93CF93DF93EA01FC019E
:10202000E60FF71F8181813071F082E090E09983A3
:1020300088838FEF9FEFDF91CF911F910F91FF90DA
:10204000EF90DF90089582819381D4802581E6808E
:10205000F78000918003109181030115110539F477
:1020600082E090E0998388838CEF9FEFE4CF4091EA
:102070008203509183038417950738F082E090E043
:10208000998388838EEF9FEFD6CF892B39F082E03A
:1020900090E09983888386EF9FEFCDCF8D2D8D7F44
:1020A000B1F72130A1F781E0D11006C091E0E91627
:1020B000F10431F080E004C0E2E0EE16F104D0F368
:1020C000882329F390E080E0DEDD882339F082E088
:1020D00090E09983888388EF9FEFADCFF801D38696
:1020E00081E08487F686E586108A178681E090E095
:1020F0009983888390E080E09ECF4CE050E066E5D5
:1021000072E073CA8F929F92BF92CF92DF92EF924A
:10211000FF920F931F93CF93DF93EA01FC01E60F29
:10212000F71F828193810481B580E0918003F09153
:102130008103309791F482E090E0998388838CEF5B
:102140009FEFDF91CF911F910F91FF90EF90DF9064
:10215000CF90BF909F908F900895209182033091EF
:1021600083038217930738F082E090E09983888395
:102170008EEF9FEFE6CF23E1289F6001299FD00CCF
:102180001124EC0DFD1DE080F180E114F10499F2C1
:102190008281081748F78BE0089F80011124E00E28
:1021A000F11EF70180819181892B29F6BB20E1F294
:1021B000F7E0BF9E40011124C4010E94C41CF70136
:1021C00091838083E0918003F0918103EC0DFD1DEC
:1021D0000190F081E02DE00FF11F80819181009747
:1021E00039F482E090E0998388838DEF9FEFA9CF47
:1021F000A40170E060E00E94BB2B8091800390916D
:102200008103C80ED91EF60180819181080F191F24
:10221000F801B28281E090E09983888390E080E0C9
:1022200090CFAF92BF92CF92DF92FF920F931F9306
:10223000CF93DF93EA01FC01E60FF71F82819381C0
:10224000F48000918003109181030115110581F440
:1022500082E090E0998388838CEF9FEFDF91CF91AC
:102260001F910F91FF90DF90CF90BF90AF90089596
:1022700020918203309183038217930738F082E024
:1022800090E0998388838EEF9FEFE8CF2FEF2F0D9B
:102290002C3FA8F723E1289F6001299FD00C11242F
:1022A0000C0D1D1DF80180819181892B89F6FBE0C1
:1022B000FF9E50011124C5010E94C41CF8019183A6
:1022C0008083E0918003F0918103EC0DFD1D8081FE
:1022D0009181009739F482E090E0998388838DEFB3
:1022E0009FEFBCCFA50170E060E00E94BB2BE091A6
:1022F0008003F0918103EC0DFD1DF28281E090E0FE
:102300009983888390E080E0A9CFCF92DF92EF920B
:10231000FF920F931F93CF93DF93860F971FFC01BC
:10232000028113818091800390918103892B81F038
:1023300082E090E0FA01918380838CEF9FEFDF9140
:10234000CF911F910F91FF90EF90DF90CF90089564
:10235000C801B0E0A0E00197A109B1098F3F9F4FEC
:10236000A105B10540F082E090E0FA0191838083FD
:102370008EEF9FEFE4CF7A0183E1809F6001819F20
:10238000D00C1124C6010E94C41CEC01009741F43A
:1023900082E090E0F701918380838DEF9FEFCFCFB4
:1023A000A60170E060E00E94BB2BD0938103C09334
:1023B0008003109383030093820390E080E02FEF6B
:1023C0003FEF41E061E070E08017910741F481E068
:1023D00090E0F7019183808390E080E0B0CF3A8B6A
:1023E000298B1B864C877E876D87188A1F860196EE
:1023F0006396EACFCF92DF92EF92FF920F931F93F3
:10240000CF93DF93EC01D12CC12C10E000E0F12C34
:10241000E12C6A816017110609F0CCF483E0689F13
:10242000B0011124AE014F5E5F4FC7010E943E1DF7
:10243000009721F02FEF3FEF3A8B298BDF91CF915F
:102440001F910F91FF90EF90DF90CF900895E8815A
:10245000F981EC0DFD1D438154818D859E85489F3A
:102460009001499F300D589F300D1124C9010196EC
:102470000115110519F44F8144FD049661E070E0E7
:102480000E94781BE816F90608F47C010F5F1F4FC5
:102490008BE0C80ED11CBDCFF89420917E03309103
:1024A0007F0381E02115310509F080E0232B09F03D
:1024B000789408952F923F924F925F926F927F92FD
:1024C0008F929F92AF92BF92CF92DF92EF92FF9244
:1024D0000F931F93CF93DF933C01660E771EF3019A
:1024E000828193814C01B12CA12CC0918003D091A9
:1024F0008103209769F021E030E0609182037091C0
:1025000083038617970710F030E020E0232BD1F4E7
:1025100082E090E0FA01918380838EEF9FEFDF915C
:10252000CF911F910F91FF90EF90DF90CF90BF90D0
:10253000AF909F908F907F906F905F904F903F9063
:102540002F90089580921F0290922002A092210263
:10255000B092220263E1689F9001699F300D1124BF
:10256000C20FD31FF3018181833040F082E090E0FD
:10257000FA019183808386EF9FEFD1CF2A012B81CF
:102580003C81232BF1F4288139819F8191FF2EC05A
:10259000232B09F46FC0209185039A81422F490FA4
:1025A0005527551FBA0141E050E06138710514F01C
:1025B00050E040E0452B09F45DC02A87920F9093CC
:1025C00085038150823008F481C066DF882309F4D6
:1025D000D6C0F3018181813009F48DC008F47BC03D
:1025E000823009F4C4C090E080E0ADC0232B09F430
:1025F00041C0209184039A81E22FE90FFF27FF1F3A
:1026000041E050E0ED3FF10514F050E040E0452B93
:1026100089F12A87920F90938403D3CFA081B1814F
:10262000A20FB31F11966C91060F111D0196295F21
:102630003F4F8417950794F38D859E85089F100161
:10264000099F300C189F300C1124C114D104D1F40F
:102650008F8184FF17C00E94C61BF5E02F0E311C2E
:1026600021E08215930508F420E0A701455F5F4F44
:1026700021110EC082E090E0F2019183808387EF08
:102680009FEF4DCF0E94C61B2FEF221A320AE8CFD0
:1026900088819981E80EF91EF70114830383FFEF07
:1026A000CF1ADF0A7A018A818C151D0409F00CF417
:1026B0008CCFE881F981EE0DFF1D428150E030E0C2
:1026C00020E010E000E090E080E0B3CFF12CE12CBE
:1026D000D12CC12CE8CF81E090E09C838B83EADA97
:1026E000882309F480CF81E090E00E94D70A80E43B
:1026F0000E94E50A78CF89899A89019661F083E082
:1027000090E09C838B8382E090E00E94D70A80E473
:102710000E94DF0A68CF2D813E8180911502909141
:10272000160228173907D1F46091190270911A0224
:10273000AE014F5E5F4F80911702909118020E9488
:102740005D1E0097E1F2789422E030E0F2013183DF
:102750002083892B89F08DEF9FEFE1CE89288A288D
:102760008B2869F6CE0146DE188A1F86EACF82E002
:1027700090E09C838B8337CF90E080E0D0CE82E0E6
:1027800090E0F2019183808385EF9FEFC8CE8F9216
:102790009F92AF92BF92CF92DF92EF92FF920F93F0
:1027A0001F93CF93DF93EA018C01060F171FF801E7
:1027B0008181833098F082E090E09983888386EF6E
:1027C0009FEFDF91CF911F910F91FF90EF90DF90DE
:1027D000CF90BF90AF909F908F900895809180038D
:1027E00090918103892B61F081E090E02091820338
:1027F00030918303232B11F490E080E0892B39F48E
:1028000082E090E0998388838EEF9FEFDACF44DEF9
:10281000882309F4DDC0F8018181813009F493C077
:10282000E8F0823099F42091820330918303E091A3
:102830008003F091810390E080E041E050E02817B0
:10284000390709F0BBC036DA811117C0789481E0EE
:1028500090E09983888390E080E0B3CF2091820359
:1028600030918303E0918003F091810390E080E058
:1028700041E050E02817390741F481E090E00E94E0
:10288000D70A80E40E94E50AE1CF63817481672B57
:1028900011F05483438301967396ECCFE09180034B
:1028A000F0918103E00FF11F238134812230310543
:1028B000D9F4218932892F3F3F4FB1F445815681A8
:1028C00020911502309116024217530761F5AF01AE
:1028D0004F5E5F4F6091190270911A02809117024A
:1028E000909118020E945D1EEFEFCE1ADE0AEE0AEA
:1028F000FE0A0D5E1F4F409182035091830370E0EA
:1029000060E0C416D506E606F7062CF5009731F20E
:102910007894892B09F49BCF82E090E09983888397
:102920008DEF9FEF4ECFC114D104E104F104E1F625
:10293000CF0160DDE0918003F0918103E00FF11F92
:10294000108A1786D1CF10E000E090E080E0C12C23
:10295000D12C7601D0CF0097D9F610E000E0812C81
:10296000912C540183E0E82EF12C1AC0E0918003F1
:10297000F0918103E00FF11F83819481029749F464
:10298000F482E38282E090E00E94D70A80E40E9411
:10299000DF0AFFEF8F1A9F0AAF0ABF0A0D5E1F4FB3
:1029A0008091820390918303B0E0A0E0881699069D
:1029B000AA06BB06DCF290E080E0AACF63817481B6
:1029C0006230710511F4548343830196739637CFB7
:1029D00082E090E09983888385EF9FEFF2CE0097A5
:1029E000B9F48FEFFB01808320911F023091200208
:1029F00043E1429FC001439F900D1124E091800369
:102A0000F0918103E80FF91F8285FB01818308950E
:102A10000C948E0A88E090E0FA019183808390E024
:102A200080E0089510927F0310927E03E0E8F3E0C7
:102A300086E0DF011D928A95E9F78DE790E190939A
:102A40007D0380937C03089580917C0390917D03A6
:102A500008952F923F924F925F926F927F928F9242
:102A60009F92AF92BF92CF92DF92EF92FF920F931D
:102A70001F93CF93DF93CDB7DEB760970FB6F8946F
:102A8000DEBF0FBECDBFF894E0917E03F0917F03CF
:102A90003196F0937F03E0937E037894A0918003B6
:102AA000B0918103BA83A983109709F4FAC1E09128
:102AB0008203F0918303EF2B09F4F3C128874B873E
:102AC0005C876D877E879A878987B88BAF87312C23
:102AD000212CF12C512C412C809182039091830365
:102AE0002816390610F4FF2029F1F89480917E030E
:102AF00090917F03019790937F0380937E03789456
:102B0000C20160960FB6F894DEBF0FBECDBFDF9155
:102B1000CF911F910F91FF90EF90DF90CF90BF90DA
:102B2000AF909F908F907F906F905F904F903F906D
:102B30002F900895B10190E080E086D4682EEF8553
:102B4000F889878181FD3DC0838194810397C9F510
:102B5000258136813C832B8389859A8528173907FF
:102B600081F5C101F1D8782E8823A9F1AF85B88904
:102B70001F968D919C915097019621E01D964D9145
:102B80005C918417950709F020E02F83B12CA12CCC
:102B9000EF85F88982818A151B0419F014F0FF2053
:102BA000E9F0F885FF2309F46CC1AF85B889509628
:102BB0001C921E921F97662021F0B10190E080E0E8
:102BC00045D4FFEF2F1A3F0A2F8538892D5E3F4FDE
:102BD000388B2F8781CFB1E0BF83D8CFBED49E83FF
:102BE0008D83E885EE23E9F0772009F43CC1AF85B9
:102BF000B8891F968D919C91892B79F0BBE0BA9D85
:102C0000C001BB9D900D1124AF85B889ED91FC9159
:102C1000E80FF91F8581968105D7BFEFAB1ABB0A74
:102C2000B7CF81E0772039F0EF85F88927853089A3
:102C3000232B09F080E0F82EE12CA114B10439F423
:102C4000AF85B8891796EC90E4FAEE24E0F8BBE083
:102C5000BA9D6001BB9DD00C1124882309F424C1C6
:102C6000AF85B889ED91FC911197EC0DFD1D438165
:102C700054811D962D913C91429FC001439F900D20
:102C8000529F900D1124E1105DC0019690878783BB
:102C900061E070E0878190852BD5EF85F8892189E7
:102CA0003289008111810C0D1D1D2F3F320709F45F
:102CB0004BC0BC01C9010E949E1ED80116969C9370
:102CC0008E931597AF85B889ED91FC911197EC0D16
:102CD000FD1D058116810115110509F4CDC0ED8199
:102CE000FE810E0F1F1F1A968C918A0DD8018C93AE
:102CF000E1102FC00F5F1F4FAF85B889ED91FC9198
:102D0000EC0DFD1D12870187AF85B889ED91FC910F
:102D1000EC0DFD1D85819681892B09F4A4C080915D
:102D20001502909116022B813C812817390709F46E
:102D300065C0772011F001851285912C812C1A82B3
:102D400019824AC00596A2CF1FD6F80196838583C3
:102D5000B9CF8B859C85AD85BE85F8018183928333
:102D6000A383B4830B5F1F4FC7CFE080F180E80CD3
:102D7000F91CD70113966D917C9114978C918F3F1C
:102D800009F473C0E1E0F0E002C0EE0FFF1F8A9586
:102D9000E2F7CF01092E000CAA0BBB0BFB0140810F
:102DA00051816281738184239523A623B72321E077
:102DB000892B8A2B8B2B09F420E0D8012C93D70187
:102DC00011968C91080F111DE981FA813196FA83D1
:102DD000E983F7E08F0E911CAF85B889ED91FC91E6
:102DE000EC0DFD1D828129813A818217130611F0B5
:102DF0000CF0BBCF772011F0128701873F8133237E
:102E000091F1AF85B889ED91FC91EC0DFD1D61E06C
:102E100070E0878190856CD4AF85B889ED91FC9185
:102E2000EC0DFD1DE780F08445815681E1E0F0E086
:102E3000662011F0F0E0E0E00D811E819C01B101FF
:102E4000882799278E1B9F0B8BD32C01892B59F038
:102E5000EF85F88980819181C80ED91ED60115961B
:102E60008D919C91DFD5F12CD8CEF701418150E0B6
:102E7000C8010E94B22BA3CF86EF482E55245A9446
:102E8000CCCEEF85F889878590890196908B8787CE
:102E9000258536858217930709F08DCE108A17860F
:102EA0008ACE512C412C21CE10E000E02DCF2F9264
:102EB0003F924F925F926F927F928F929F92AF92CA
:102EC000BF92CF92DF92EF92FF920F931F93CF9317
:102ED000DF93809180039091810310E000E0892BC3
:102EE000A9F0DADA0AEF1FEF882381F0209082033D
:102EF00030908303C0918003D0918103D12CC12CE9
:102F000010E000E02C143D04A9F47894C801DF918E
:102F1000CF911F910F91FF90EF90DF90CF90BF90D6
:102F2000AF909F908F907F906F905F904F903F9069
:102F30002F900895C6010E94A40E882309F18B8169
:102F40009C810397E9F48F859889892BC9F0B60194
:102F500090E080E079D221E030E0882311F030E089
:102F600020E044245524421A530AB12CA12C912C60
:102F7000812C8A818815190409F038F4188A1F8673
:102F80004FEFC41AD40A6396BDCFE881F981EA0DE8
:102F9000FB1D85819681892BA1F161E070E087811D
:102FA0009085A6D33C01D9D28C01E881F981EA0D44
:102FB000FB1D8185928525813681200F311FAC0153
:102FC000421B530B9A0147815085421B530B70E003
:102FD00060E00E94BB2BE881F981EA0DFB1DE780D0
:102FE000F084458156819301B601C201B9D28C01AA
:102FF000892B39F0E881F981EA0DFB1D85819681E5
:1030000011D55FEF851A950A8BE0A80EB11CB1CFE0
:1030100043CA789408952F923F924F925F926F9295
:103020007F929F92AF92BF92CF92DF92EF92FF92E8
:103030000F931F93CF93DF9300D000D0CDB7DEB7AF
:103040000091800310918103992493940115110537
:1030500009F43EC0A0908203B09083031DDA982E3D
:103060008823B1F1109281031092800310928303A0
:103070001092820310928403109285038FEF9FEFCA
:10308000DC0180931F0290932002A0932102B09351
:10309000220278947DD31E830D83C12CD12C76011E
:1030A000C501B0E0A0E089839A83AB83BC8322246E
:1030B0002A94322C89819A81AB81BC81C816D906A9
:1030C000EA06FB06F4F0C801ADD480E40E94E50AEC
:1030D000892D26960FB6F894DEBF0FBECDBFDF91C7
:1030E000CF911F910F91FF90EF90DF90CF90BF9005
:1030F000AF909F907F906F905F904F903F902F90F8
:103100000895AD81BE8115962D913C9116978091C1
:1031100015029091160228173907D1F451968D9116
:103120009C91FAD5ED81FE8180819181B12CA12CF9
:10313000412C512C3201892B79F5BFEFCB1ADB0AD8
:10314000EB0AFB0AED81FE817396FE83ED83B2CF1D
:10315000C114D104E104F10429F7ED81FE818189D4
:1031600092898F3F980709F037D5AD81BE8152967D
:103170003C922E925197D6CF8A0D9B1DDC018D91EA
:103180009C91009709F04ED4BFEF4B1A5B0A6B0A73
:103190007B0AEBE0AE0EB11CAD81BE818D919C919E
:1031A000119712964C9150E070E060E0441655067D
:1031B000660677060CF336D4C0CFCF93DF93EA01CF
:1031C0002ADF811109C082E090E09983888385EF2E
:1031D0009FEFDF91CF91089581E090E00E94D70AA0
:1031E00081E090E09983888390E080E0F2CF13DF64
:1031F00010927D0310927C03089542E050E06EE946
:1032000072E00C94F50AFF920F931F93CF93DF9314
:103210008A01EC01C60FD71FF980B9D20897F816BA
:10322000190671F068F082E090E0F80191838083E4
:103230008EEF9FEFDF91CF911F910F91FF90089537
:103240006C817D818E819F814B810E948A0D8111CD
:1032500008C082E090E0F8019183808384EF9FEFC3
:10326000E9CFF9800E94850D4F2D50E0BE01685FC7
:103270007F4F0E94B22B89810E94F40D81E090E083
:10328000F8019183808390E080E0D4CFDF92EF92C9
:10329000FF920F931F93CF93DF938A01EC01C60F28
:1032A000D71F0E94850D7C01D98071D2DD2059F095
:1032B000029721E030E0D816190619F010F030E03E
:1032C00020E0232B79F482E090E0F8019183808361
:1032D0008EEF9FEFDF91CF911F910F91FF90EF90B5
:1032E000DF900895EF2841F482E090E0F8019183A7
:1032F000808384EF9FEFEECFF9800E94850D4F2DE4
:1033000050E0BE016E5F7F4F0E94B22B89810E9408
:10331000F40D81E090E0F8019183808390E080E0FB
:10332000D9CF8DEF98E1909387038093860308951A
:10333000809186039091870308950895FC0111827E
:103340001082938382830895DB011D921C92DC011D
:103350001296ED91FC9113977183608313967C9381
:103360006E9312970895FC0180819181DB018D930A
:103370009C93A081B181109741F08D919C91918394
:103380008083892B11F4F383E2830895FC0180810B
:103390009181DB018D939C93892B11F4738362835C
:1033A000718360830895FC0111821082938382836C
:1033B0000895CF93DF931F921F92CDB7DEB71A8285
:1033C0001982F894BE016F5F7F4F8DE893E0CBDFE9
:1033D00089819A81009709F025D389819A81892B67
:1033E00089F7BE016F5F7F4F81E993E0BCDF898180
:1033F0009A81009709F016D389819A81892B89F7E0
:1034000078940F900F90DF91CF910895CF93DF9331
:103410001F921F92CDB7DEB71A821982F894BE01AF
:103420006F5F7F4F89E893E09EDF89819A810097E3
:1034300009F0F8D289819A81892B89F778940F90C5
:103440000F90DF91CF91089581E0089590E080E0A2
:103450000895EF92FF920F931F93CF93DF931F92E4
:103460001F92CDB7DEB71A8219828091880307EFC9
:103470001FEF8823A1F1F894BE016F5F7F4F81E9B0
:1034800093E071DF789489819A81EE24E394F12CA2
:10349000892B51F4F894BE016F5F7F4F8DE893E064
:1034A00062DF7894F12CE12C89819A810EEF1FEF75
:1034B0000097A9F0FC014281538164E070E03CD6A2
:1034C0008C01892B61F0F89469817A81C701880F9A
:1034D000991F880F991F83579C4F58DF7894C80114
:1034E0000F900F90DF91CF911F910F91FF90EF9070
:1034F00008950F931F93CF93DF9300D01F92CDB702
:10350000DEB71C821B821A8219828091880307EF22
:103510001FEF8823C1F0AE014D5F5F4F64E070E0A4
:10352000CE0101967CD68C01892B69F4E981FA8160
:103530008B819C8193838283F89469817A8189E865
:1035400093E002DF7894C8010F900F900F900F90D6
:10355000DF91CF911F910F91089581D7049608951F
:103560008F929F92AF92BF92CF92DF92EF92FF9293
:103570000F931F93CF93DF931F921F92CDB7DEB7A8
:103580001A821982BC016F5F7F4F6330710598F01A
:10359000AA24AA94BA2CC5010F900F90DF91CF9165
:1035A0001F910F91FF90EF90DF90CF90BF90AF9061
:1035B0009F908F9008954115510551F3480159018D
:1035C0008A016C01CADF8815990511F7E114F1042D
:1035D000F9F28E0D9F1DA816B906D0F280918803CE
:1035E0008823F1F0F894B501645071099701AE0198
:1035F0004F5F5F4FC8010496A7D65C01892B71F419
:1036000089819A81F80193838283C601880F991F6B
:10361000880F991FB80183579C4F96DE7894BBCFD3
:1036200087EFA82EBB24BA94B6CFAF92BF92CF92A9
:10363000DF92EF92FF920F931F93CF93DF931F922E
:103640001F92CDB7DEB71A821982892B09F047C0C5
:103650006115710509F443C04115510509F43FC0D6
:103660002115310509F43BC001151105C1F1809107
:1036700088038823B9F179016A015B01F894BE01DE
:103680006F5F7F4F89E893E06EDE789489819A813D
:10369000009759F1DC0112966D917C91A801049676
:1036A0006CD68C01E981FA81D501ED93FC9382817E
:1036B00093810496F601918380834FDFD7018D9328
:1036C0009C93C8010F900F90DF91CF911F910F91A4
:1036D000FF90EF90DF90CF90BF90AF9008950FEFE5
:1036E0001FEFEFCF07EF1FEFECCF0EEF1FEFE9CF8C
:1036F000CF93DF93EC01672B71F4BAD68C179D073B
:1037000060F0ADD62496C80FD91FACD68C0F9D1F84
:10371000DF91CF910895A9D6F1CF90E080E0F8CF66
:103720000F931F93CF93DF932091880321112BC018
:103730008B01EC018DE893E001DE81E993E0FEDD91
:1037400089E893E0FBDD97D00097C1F491D670E053
:1037500060E0CEDF43E252E062E070E08FD100979C
:1037600069F4809123029091240294D6B801CE018D
:10377000C9D4009719F421E020938803DF91CF91F9
:103780001F910F91089584EF9FEFF8CF6EC670C61A
:10379000CF93DF9370D6EC01892B11F40ADE36DE6D
:1037A000CE01DF91CF910895CF93DF9364D6EC01E2
:1037B000892B09F4FEDDCE01DF91CF910895809130
:1037C0002302909124020895CF93DF938091880380
:1037D000D0E0C0E08823D1F062D6EC01892BB1F4AF
:1037E000E8DD14DE8091230290912402F5D1F6D217
:1037F000EC01892B59F48DE893E0D5DD81E993E064
:10380000D2DD89E893E0CFDD10928803CE01DF910D
:10381000CF910895EF92FF920F931F93CF93DF9371
:10382000EC017A018B010F5F1F4F0E9DA0010F9DD0
:10383000500D1E9D500D112470E060E00E94BB2BC6
:1038400090E080E0F0E0E0E02FEFE816F90639F4D0
:10385000DF91CF911F910F91FF90EF9008951A8201
:1038600019822883309711F0D283C1830196FE011B
:10387000C00FD11FEACFCF92DF92EF92FF920F934A
:103880001F93CF93DF930AE914E00C7F8AEAE82EB6
:1038900082E0F82E90EBC92E92E0D92EC9EFD4E049
:1038A000D7014D915D917D01F601619171916F019B
:1038B000198308835D834C835B834A837F836E8394
:1038C0009B012F5F3F4F249FC001259F900D349F88
:1038D000900D1124998788870115110511F0C801F1
:1038E00099DF88859985080F191F2A96F0EBEF1646
:1038F000F2E0FF06A9F6E7E9F3E080E091E0DF01FE
:103900009C011D9221503040E1F7109296031092D5
:103910009503109218051092170510921C0510922D
:103920001B0510921A051092190510921E0510928F
:103930001D051092200510921F051092220510926D
:10394000210510922605109225051092240510924B
:103950002305109228051092270510922A0510922F
:1039600029051092F6041092F5041092F8041092B2
:10397000F70490E080E0DF91CF911F910F91FF90CD
:10398000EF90DF90CF900895009799F1F8948930E7
:10399000910550F48091FB049091FC04892B39F03F
:1039A00020E090E080E018C08132910550F48091D1
:1039B000050590910605892B31F021E081E090E02A
:1039C0000BC0C197A8F480910F0590911005892B29
:1039D00079F022E082E090E0EAE0E89FD001E99F00
:1039E000B00D1124A750BB4F8D919C91009721F4ED
:1039F000789490E080E00895E29FF0011124E75070
:103A0000FB4FDC0111964D915C91518340834281C3
:103A100053814150510953834283FC012193CF01CB
:103A200078940895009749F1DC018E91853041F436
:103A3000E091F704F091F8043097F9F0CD01199472
:103A40008530D8F4282F30E0F8948FEF8C938AE0FB
:103A5000829FF001839FF00D1124E750FB4F80817E
:103A6000918112969C938E931197B183A08382814A
:103A7000938101969383828378940895CF92DF9205
:103A8000EF92FF920F931F93CF93DF939C018AE9EC
:103A900093E08C7F4115510509F49BC02115310538
:103AA00009F497C06115710509F493C07A01AB015F
:103AB000B9016D5F7F4F6C7F9B012F5F3F4F249F4C
:103AC0008001259F100D349F100D1124F894209132
:103AD000170530911805232B59F420911F053091BB
:103AE00020052115310569F12017310708F058C06C
:103AF0002091210530912205232B91F420911F055F
:103B000030912005820F931F2091290530912A05BD
:103B10002115310509F441C02017310708F056C0BE
:103B20007894CFEFDFEF86EF9FEFF701D183C0836B
:103B3000DF91CF911F910F91FF90EF90DF90CF9089
:103B40000895C3E0D0E0C0909503D09096032DEF88
:103B500030E02C193D092017310710F32AE02C9F83
:103B6000F0012D9FF00D1124E750FB4F91838083CE
:103B70005583448353834283778366831187008709
:103B8000009709F047DE0C0D1D1D1093960300935E
:103B90009503789490E080E0C8CFC4E0D0E0D3CF24
:103BA000C3E0D0E02AE02C9FF0012D9FF00D1124FE
:103BB000E750FB4F91838083558344835383428333
:103BC00077836683009729F325DEE3CFC4E0D0E056
:103BD000E9CF8FEF9FEFACCF9C010397029708F0DE
:103BE00069C0F89484E09AE0482F50E02417350724
:103BF0000CF44DC091E08AE0829FF001839FF00DAC
:103C00001124E750FB4F1182108215821482138217
:103C10001282178216829923B1F180912105909129
:103C20002205892BA9F42091290530912A05211517
:103C3000310571F08091950390919603821B930B4F
:103C4000909396038093950310922A05109229056C
:103C50008091170590911805892BA9F420911F05D3
:103C6000309120052115310571F0809195039091D7
:103C70009603821B930B9093960380939503109267
:103C8000200510921F05789490E080E00895949F9D
:103C9000F001959FF00D1124E750FB4F40815181B9
:103CA000452B31F440855185452B11F481509CCF33
:103CB00090E0A1CF8FEF9FEF08954115510549F195
:103CC000009739F16115710521F1F8942091F504FF
:103CD0003091F604232BB9F42091F7043091F804C5
:103CE000232B89F49093F6048093F5047093F804E1
:103CF0006093F704789425E030E090E080E0FA01EA
:103D000031832083089578942FEF3FEF86EF9FEF64
:103D1000F6CF8FEF9FEF0895059769F4F89410920E
:103D2000F6041092F5041092F8041092F7047894B7
:103D300090E080E008958FEF9FEF08956115710581
:103D400019F4F0E0E0E011C08530910581F4E091D4
:103D5000F504F091F6043097A1F3CB010196199583
:103D6000009779F3FC0185E08193CF0108959C01D0
:103D7000235031092230310520F72AE0289FD00155
:103D8000299FB00D1124A750BB4F2D913C91119745
:103D9000232BB9F216962D913C91179726173707CA
:103DA00080F2F89412962D913C91139721153105CC
:103DB00029F0ED91FC911197309711F47894C1CFCF
:103DC0004181528111965C934E9321503109139693
:103DD0003C932E93129781937894C7CFE7E9F4E050
:103DE0008EE5DF011D928A95E9F7E7E9F3E080E0CF
:103DF00091E0DF019C011D9221503040E1F71092CB
:103E0000960310929503E9EFF4E082E3DF011D923F
:103E10008A95E9F7E5EFF4E084E0DF011D928A95E9
:103E2000E9F790E080E00895CF93DF93C0912502F9
:103E3000D0912602CF3FDC0759F4DCD390932602C1
:103E40008093250297FF09C0D0932602C0932502D4
:103E500084EF9FEFDF91CF91089590E080E0FACF5B
:103E60008230910528F480932B0590E080E008953E
:103E70008FEF9FEF08954F925F926F927F92AF9274
:103E8000BF92CF92DF92EF92FF920F931F93CF9347
:103E9000DF931F921F92CDB7DEB71A821982009767
:103EA00009F478C06115710509F474C020912502E8
:103EB0003091260207EF1FEF2F3F3F4F09F444C018
:103EC0006B015C01412C512C3201F12CE12C10E0F2
:103ED00000E09E012F5F3F4FA6014E195F09B5011B
:103EE0006E0D7F1D8091250290912602E1D3892BD2
:103EF00009F04AC089819A81009741F4E114F104E4
:103F000029F420912B05222309F441C0E80EF91E63
:103F1000EC14FD04C8F480E8481684E858068EE1E5
:103F20006806710418F560E070E0CB01C1D62AE0A4
:103F3000420E511C611C711C0A3F4FEF140721F007
:103F4000043F8FEF1807A1F4C8010F900F90DF9185
:103F5000CF911F910F91FF90EF90DF90CF90BF9086
:103F6000AF907F906F905F904F90089501EF1FEF9B
:103F700081E090E0013F2FEF120711F090E080E028
:103F8000892B09F4A6CFE0CF04EF1FEFDDCF0AEFB6
:103F90001FEFDACF0FEF1FEFD7CF4F925F926F92E5
:103FA0007F92AF92BF92CF92DF92EF92FF920F93E8
:103FB0001F93CF93DF931F921F92CDB7DEB71A8264
:103FC0001982009709F478C06115710509F474C06D
:103FD000209125023091260207EF1FEF2F3F3F4F20
:103FE00009F444C06B015C01412C512C3201F12CCD
:103FF000E12C10E000E09E012F5F3F4FA6014E191B
:104000005F09B5016E0D7F1D8091250290912602FA
:1040100005D3892B09F04AC089819A81009741F420
:10402000E114F10429F420912B05222309F441C065
:10403000E80EF91EEC14FD04C8F480E8481686E981
:10404000580688E96806710418F560E070E0CB0155
:104050002FD62AE0420E511C611C711C0E3F4FEFFF
:10406000140721F0043F8FEF1807A1F4C8010F9047
:104070000F90DF91CF911F910F91FF90EF90DF9004
:10408000CF90BF90AF907F906F905F904F900895CA
:1040900002EF1FEF81E090E0023F2FEF120711F0D7
:1040A00090E080E0892B09F4A6CFE0CF04EF1FEF6A
:1040B000DDCF0EEF1FEFDACF0FEF1FEFD7CF8091DD
:1040C0002502909126028F3F980749F08BD2892BC9
:1040D00049F48FEF9FEF909326028093250290E0A2
:1040E00080E0089584EF9FEF0895FC01680F791F29
:1040F00090E080E0E617F70709F408952191820F18
:10410000911DF8CF20912C05211113C08DDE009751
:1041100091F41092320510923105109230051092F0
:104120002F0510922E0510922D0521E020932C05CD
:10413000089584EF9FEF0895AF92BF92CF92DF92E0
:10414000EF92FF920F931F93CF93DF93009709F4A1
:1041500060C04630510508F45CC020912C05C7EFC3
:10416000DFEF222309F449C08C01060F171FF80165
:10417000C080D180C114D10409F44EC096012A5FD9
:104180003F4F4217530708F447C07C018091310527
:104190009091320593838283B6016C5F7F4F580103
:1041A000A60EB71EC801A1DFF5019183808364E0EC
:1041B00070E0C80160DEEC01892BF9F481E090E049
:1041C0004FDEB601C801049656DEEC01892B91F44E
:1041D00062E070E0C5014FDEEC01892B59F4C701A4
:1041E00021DC809131059091320501969093320542
:1041F0008093310590E080E033DECE01DF91CF91F6
:104200001F910F91FF90EF90DF90CF90BF90AF90F4
:104210000895CFEFDFEFF1CFC9EFDFEFEECF6F9271
:104220007F928F929F92AF92BF92CF92DF92EF9246
:10423000FF920F931F93CF93DF9300D01F92CDB7C0
:10424000DEB7009709F47AC04115510509F476C02C
:1042500020912C0507EF1FEF222309F44DC03A01EE
:104260007B015C0164E070E0CE01019696DE8C017A
:10427000892B09F041C009811A810115110509F442
:104280005AC0480186E0880E911CB701680D791D5F
:10429000809127029091280251DD6C01009709F46A
:1042A00050C0A70170E060E00E94BB2B89819A8119
:1042B000AB81BC81EC0CFD1CF70181939193A19320
:1042C000B1937F0181E090E0CBDDB801C70165DEED
:1042D000892B31F562E070E0C701800F911F5DDE30
:1042E0008C01892BE9F490E080E0BADDF501D18200
:1042F000C082F30191828082C8010F900F900F90CD
:104300000F90DF91CF911F910F91FF90EF90DF9071
:10431000CF90BF90AF909F908F907F906F900895B7
:1043200090E080E09DDDF50111821082F3011182A1
:104330001082C60177DB09EF1FEFDECF0FEF1FEF13
:10434000DBCF06EF1FEFD8CF0097A1F04115510545
:1043500089F02115310571F0F90136966E177F0746
:1043600048F0DC012D933C93DA01ED93FC9390E04F
:1043700080E008958FEF9FEF0895AF92BF92CF92A4
:10438000DF92EF92FF920F931F93CF93DF930097EB
:1043900009F45FC04115510509F45BC06530710532
:1043A00008F457C020912C05C7EFDFEF222391F1CD
:1043B000DC01CD90DC9011971296ED91FC91960165
:1043C0002A5F3F4FC9EFDFEF2617370719F5C09176
:1043D0002D05D0912E05209749F521E030E030934E
:1043E0002E0520932D057A018C01F0933005E09382
:1043F0002F055601B4E0AB0EB11CB50176DE0A0DF7
:104400001B1DF801208131818217930729F5D701FF
:10441000CD92DC92CE01DF91CF911F910F91FF9051
:10442000EF90DF90CF90BF90AF90089520912F052F
:10443000309130052F5F3F4FCCEFDFEFE217F307EE
:1044400090F2CBEFDFEF2E173F0768F2D0E0C0E02D
:10445000CACFCFEFDFEFDECFC3EFDFEFDBCF84E0FC
:1044600090E0089582E090E008958CEF9FEF08952A
:1044700080E290E00895109232051092310510927A
:10448000300510922F0510922E0510922D0590E008
:1044900080E00895909328028093270208958091E8
:1044A0002C05882391F00BDE009789F410923205D9
:1044B000109231051092300510922F0510922E05A2
:1044C00010922D0510922C05089590E080E008953B
:1044D000009749F06115710531F0FC0111821082DD
:1044E000FB01118210820895F3CF40E855E260E0AD
:1044F00070E090E080E000C08130910571F01CF424
:10450000892B39F008958230910559F0039769F0AD
:10451000089526E080E495E024C626E08DED95E040
:10452000FBCF26E08AE796E0F7CF26E087E197E029
:10453000F3CF1F920F920FB60F9211240BB60F926A
:104540002F933F934F935F936F937F938F939F939B
:10455000AF93BF93EF93FF938EE19BEF9093250171
:1045600080932401B8D0FF91EF91BF91AF919F91BB
:104570008F917F916F915F914F913F912F910F900C
:104580000BBE0F900FBE0F901F9018958EE19BEF02
:104590009093250180932401A3E7B0E08C918E7F56
:1045A0008C93E0E2F1E080818C7F8083E1E2F1E0B6
:1045B0008081877E808380818460808380818C7FFE
:1045C00080838C9181608C930895E3E7F0E0808193
:1045D00090819E7F90838170089581E0089510926C
:1045E0003305089568EE73E080E090E061D390E0D9
:1045F00080E0089526E040E050E16EE070E080E465
:1046000095E0AFD580E495E0E2D4892B21F080E4F9
:1046100095E0F7D4F7CF90E080E00895CF92DF9255
:10462000EF92FF920F931F93CF93DF936B017A0169
:10463000E9011982188280E495E0C9D4892B69F1D7
:104640008601CC24C39482E0D82E80913305811159
:1046500010C080E495E0D5D40297B9F7C092330535
:10466000F801D1928F01888199810196998388837D
:10467000ECCF888199818E159F0578F480E495E0D0
:10468000C0D48F3F9807A9F3F80181938F018881E7
:104690009981019699838883ECCF90E080E0DF9147
:1046A000CF911F910F91FF90EF90DF90CF900895E1
:1046B0000F931F93CF93DF93EA01890180E495E084
:1046C000E0D7F801D183C08390E080E0DF91CF9103
:1046D0001F910F910895CF92DF92EF92FF92CF93A7
:1046E000DF938091340591E0980F909334058823EF
:1046F00079F021E030E03093360520933505809342
:104700003405DF91CF91FF90EF90DF90CF90089527
:104710007894C0912A02D0912B026E8D7F8D88A152
:1047200099A13ED120E030E040E85FE4EFD16B0199
:104730007C016A8D7B8D8C8D9D8D32D19B01AC016E
:10474000C701B60199D000D16B017C010E946A03B8
:10475000B701A60190E080E00E94E602F894809103
:1047600034058150CCCF0F931F93CF93DF931092DA
:10477000C1071092C007D2D2B8DEC0912A02D091F0
:104780002B02198218826FEF7FEFCB010E945F032B
:1047900070E060E090E080E00E94EF01009709F097
:1047A0003AC00E943604F8947894BE016A5D7F4F47
:1047B0008A819B810E94F201892B59F46FEF7FEF70
:1047C000CB010E947D020E945903882311F081E0F1
:1047D0008AA7F894DBDE0E945C03882311F080E056
:1047E00008C00E9459038111FACF81E09AA5911166
:1047F000F6CF8093C00778940E94D20A8C017894F7
:104800008091C00781110CC00E94B1040E94420334
:10481000F89490E080E0DF91CF911F910F9108957F
:104820000E9440030E945C038823D9F081E08093BA
:10483000C1079091C10781E0911180E08093C0078A
:104840008091C1078111C1DE0130110529F40E9458
:10485000D20A892B09F4C3DE0E94D20A8C01BDDE84
:10486000CFCF0E9459038111E1CF81E09AA5911128
:10487000DECF80E0DCCF5058BB27AA270ED008C17E
:10488000F9D030F0FED020F031F49F3F11F41EF447
:10489000EEC00EF4E095E7FBE4C0E92F0AD180F307
:1048A000BA17620773078407950718F071F49EF52D
:1048B00022C10EF4E0950B2EBA2FA02D0B01B901E9
:1048C00090010C01CA01A0011124FF27591B99F086
:1048D000593F50F4503E68F11A16F040A22F232F92
:1048E000342F4427585FF3CF469537952795A795E2
:1048F000F0405395C9F77EF41F16BA0B620B730B89
:10490000840BBAF09150A1F0FF0FBB1F661F771FF9
:10491000881FC2F70EC0BA0F621F731F841F48F4AE
:10492000879577956795B795F7959E3F08F0B3CF34
:104930009395880F08F09927EE0F9795879508951E
:104940006CD008F481E00895BCD088F09F5790F0B7
:10495000B92F9927B751A0F0D1F0660F771F881FA4
:10496000991F1AF0BA95C9F712C0B13081F0C3D0BF
:10497000B1E00895C0C0672F782F8827B85F39F05D
:10498000B93FCCF3869577956795B395D9F73EF403
:1049900090958095709561957F4F8F4F9F4F0895AB
:1049A000E89409C097FB3EF49095809570956195C9
:1049B0007F4F8F4F9F4F9923A9F0F92F96E9BB277F
:1049C0009395F695879577956795B795F111F8CFFB
:1049D000FAF4BB0F11F460FF1BC06F5F7F4F8F4F66
:1049E0009F4F16C0882311F096E911C0772321F05C
:1049F0009EE8872F762F05C0662371F096E8862FF4
:104A000070E060E02AF09A95660F771F881FDAF74A
:104A1000880F9695879597F90895990F0008550F77
:104A2000AA0BE0E8FEEF16161706E807F907C0F034
:104A300012161306E407F50798F0621B730B840B3C
:104A4000950B39F40A2661F0232B242B252B21F416
:104A500008950A2609F4A140A6958FEF811D811DB6
:104A6000089597F99F6780E870E060E008959FEFF0
:104A700080EC089500240A941616170618060906F5
:104A8000089500240A9412161306140605060895C4
:104A9000092E0394000C11F4882352F0BB0F40F44C
:104AA000BF2B11F460FF04C06F5F7F4F8F4F9F4F8C
:104AB000089557FD9058440F551F59F05F3F71F00E
:104AC0004795880F97FB991F61F09F3F79F0879575
:104AD0000895121613061406551FF2CF4695F1DFFE
:104AE00008C0161617061806991FF1CF869571058E
:104AF000610508940895E894BB2766277727CB01C2
:104B000097F908958ADF08F48FEF08950BD0C0CF8E
:104B1000B1DF28F0B6DF18F0952309F0A2CFA7CFB8
:104B20001124EACFC6DFA0F3959FD1F3950F50E093
:104B3000551F629FF001729FBB27F00DB11D639F4F
:104B4000AA27F00DB11DAA1F649F6627B00DA11DF5
:104B5000661F829F2227B00DA11D621F739FB00D9B
:104B6000A11D621F839FA00D611D221F749F33270B
:104B7000A00D611D231F849F600D211D822F762FA4
:104B80006A2F11249F5750408AF0E1F088234AF0A1
:104B9000EE0FFF1FBB1F661F771F881F91505040ED
:104BA000A9F79E3F510570F05CCFA6CF5F3FECF3B5
:104BB000983EDCF3869577956795B795F795E795D9
:104BC0009F5FC1F7FE2B880F911D9695879597F9EA
:104BD00008951F920F920FB60F9211242F933F93B7
:104BE0008F939F93AF93BF93809138059091390530
:104BF000A0913A05B0913B053091370523E0230F92
:104C00002D3758F50196A11DB11D209337058093CE
:104C1000380590933905A0933A05B0933B058091F0
:104C20003C0590913D05A0913E05B0913F05019650
:104C3000A11DB11D80933C0590933D05A0933E05B9
:104C4000B0933F05BF91AF919F918F913F912F916D
:104C50000F900FBE0F901F90189526E8230F029615
:104C6000A11DB11DD2CF3FB7F89480913C05909122
:104C70003D05A0913E05B0913F0526B5A89B05C016
:104C80002F3F19F00196A11DB11D3FBFBA2FA92FCB
:104C9000982F8827BC01CD01620F711D811D911DC8
:104CA00042E0660F771F881F991F4A95D1F7089534
:104CB0008F929F92AF92BF92CF92DF92EF92FF922C
:104CC0006B017C01D0DF4B015C01C114D104E10414
:104CD000F104D9F003D5C7DF681979098A099B095E
:104CE000683E73408105910580F321E0C21AD10826
:104CF000E108F10888EE880E83E0981EA11CB11C23
:104D0000C114D104E104F10431F7FF90EF90DF907A
:104D1000CF90BF90AF909F908F900895789484B576
:104D2000826084BD84B5816084BD85B5826085BDA7
:104D300085B5816085BDEEE6F0E08081816080838D
:104D4000E1E8F0E010828081826080838081816070
:104D50008083E0E8F0E0808181608083E1EBF0E037
:104D6000808184608083E0EBF0E0808181608083DB
:104D7000E1E9F0E0808182608083808181608083CE
:104D8000E0E9F0E0808181608083E1EAF0E0808109
:104D900082608083808181608083E0EAF0E08081AE
:104DA00081608083E1E2F1E08081826080838081A4
:104DB00081608083E0E2F1E0808181608083EAE7C6
:104DC000F0E0808184608083808182608083808144
:104DD000816080838081806880831092C100089503
:104DE0008150823108F059C0E82FF0E08827E55063
:104DF000F94D8F4F96C41B271F270D271327172701
:104E00004D27222728272C27322736273A274027C5
:104E100044274D2748274E275227809180008F77BF
:104E2000809380000895809180008F7DF9CF8091DC
:104E30008000877FF5CF84B58F7784BD089584B5D2
:104E40008F7DFBCF8091B0008F778093B000089565
:104E50008091B0008F7DF9CF809190008F77809303
:104E600090000895809190008F7DF9CF80919000FF
:104E7000877FF5CF8091A0008F778093A000089561
:104E80008091A0008F7DF9CF8091A000877FF5CF22
:104E9000809120018F7780932001089580912001D7
:104EA0008F7DF9CF80912001877FF5CFCF93DF935E
:104EB00090E0FC01E65DFE4F249180599E4FFC017D
:104EC00084918823C9F090E0880F991FFC01E65176
:104ED000FE4FA591B491FC01E053FE4FC591D491D2
:104EE00061110DC09FB7F8948C91209582238C930B
:104EF0008881282328839FBFDF91CF910895623056
:104F000051F49FB7F8943C91822F809583238C9322
:104F1000E8812E2BEFCF8FB7F894EC912E2B2C93AA
:104F20008FBFEACF1F93CF93DF93282F30E0F90193
:104F3000EC51FF4F8491F901E65DFE4FD491F901E8
:104F4000E059FE4FC491CC23A1F0162F811148DF08
:104F5000EC2FF0E0EE0FFF1FE053FE4FA591B49150
:104F60008FB7F894EC91111108C0D095DE23DC9333
:104F70008FBFDF91CF911F910895DE2BF8CF0F9354
:104F80001F9390E0FC01E65DFE4F7491FC01E05937
:104F9000FE4FE4916111672FF0E0EE0FFF1FEA541E
:104FA000FE4F8591949189019A013F70462F672F9A
:104FB0000E943801611571058105910529F06F5F27
:104FC0007F4F8F4F9F4F9F701F910F910895FC014E
:104FD000918D228D892F90E0805C9F4F821B9109DB
:104FE0008F7399270895FC01918D828D981731F068
:104FF000828DE80FF11D858D90E008958FEF9FEF72
:105000000895FC01918D828D981761F0A28DAE0FED
:10501000BF2FB11D5D968C91928D9F5F9F73928F74
:1050200090E008958FEF9FEF0895FC01538D448D1C
:10503000252F30E0842F90E0821B930B541710F043
:10504000CF96089501970895FC01A48DA80FB92F5C
:10505000B11DA35ABF4F2C91848D90E001968F73A0
:105060009927848FA689B7892C93A089B1898C91BF
:10507000837080648C93938D848D981306C002880E
:10508000F389E02D80818F7D80830895CF93DF9316
:10509000EC01888D8823B1F0AA89BB89E889F98958
:1050A0008C9185FD03C0808186FD0CC00FB607FC86
:1050B000F7CF8C9185FFF2CF808185FFEDCFCE01B8
:1050C000C3DFEACFDF91CF910895EF92FF920F9364
:1050D0001F93CF93DF93EC0181E0888F9B8D8C8DA4
:1050E00098131AC0E889F989808185FF15C09FB798
:1050F000F894EE89FF896083E889F989808183705B
:10510000806480839FBF81E090E0DF91CF911F9109
:105110000F91FF90EF900895F62E0B8D10E00F5F2A
:105120001F4F0F731127E02E8C8D8E110BC00FB601
:1051300007FCFACFE889F989808185FFF5CFCE0198
:1051400083DFF2CFEB8DEC0FFD2FF11DE35AFF4F04
:10515000F0829FB7F8940B8FEA89FB898081806287
:10516000D0CFCF92DF92EF92FF921F93CF93DF9336
:10517000EC016A017B01122FE889F98982E08083C2
:10518000C11481EED806E104F10499F060E079E001
:105190008DE390E0A7019601A2D221503109410987
:1051A00051095695479537952795211580E1380780
:1051B00090F0E889F989108260E874E88EE190E067
:1051C000A70196018CD22150310941095109569508
:1051D000479537952795EC85FD853083EE85FF85CE
:1051E0002083188EEC89FD891083EA89FB898081F0
:1051F00080618083EA89FB89808188608083EA8975
:10520000FB89808180688083EA89FB8980818F7D2A
:105210008083DF91CF911F91FF90EF90DF90CF902F
:1052200008951F920F920FB60F9211240BB60F9292
:105230002F938F939F93EF93FF93E0915005F091FD
:1052400051058081E0915605F091570582FD1DC002
:105250009081809159058F5F8F7320915A05821735
:1052600041F0E0915905F0E0E05CFA4F958F8093B2
:105270005905FF91EF919F918F912F910F900BBE48
:105280000F900FBE0F901F9018958081F2CF1F9244
:105290000F920FB60F9211240BB60F922F933F93DC
:1052A0004F935F936F937F938F939F93AF93BF932E
:1052B000EF93FF9380E495E0C7DEFF91EF91BF91FC
:1052C000AF919F918F917F916F915F914F913F919E
:1052D0002F910F900BBE0F900FBE0F901F9018953F
:1052E000E0E4F5E01382128288EE93E0A0E0B0E003
:1052F00084839583A683B7838AEB92E0918380832E
:1053000085EC90E09587848784EC90E0978786878A
:1053100080EC90E0918B808B81EC90E0938B828B82
:1053200082EC90E0958B848B86EC90E0978B868B5B
:10533000118E128E138E148E08951F920F920FB637
:105340000F9211240BB60F922F938F939F93EF938D
:10535000FF93E091ED05F091EE058081E091F3057A
:10536000F091F40582FD1DC090818091F6058F5F5C
:105370008F732091F705821741F0E091F605F0E078
:10538000E352FA4F958F8093F605FF91EF919F912D
:105390008F912F910F900BBE0F900FBE0F901F900B
:1053A00018958081F2CF1F920F920FB60F921124A1
:1053B0000BB60F922F933F934F935F936F937F930F
:1053C0008F939F93AF93BF93EF93FF938DED95E0F2
:1053D0003BDEFF91EF91BF91AF919F918F917F91B4
:1053E0006F915F914F913F912F910F900BBE0F9056
:1053F0000FBE0F901F901895EDEDF5E0138212820D
:1054000088EE93E0A0E0B0E084839583A683B78321
:105410008AEB92E0918380838DEC90E0958784877E
:105420008CEC90E09787868788EC90E0918B808B5E
:1054300089EC90E0938B828B8AEC90E0958B848B47
:105440008EEC90E0978B868B118E128E138E148EBD
:1054500008951F920F920FB60F9211240BB60F9260
:105460002F938F939F93EF93FF93E0918A06F09190
:105470008B068081E0919006F091910682FD1DC01F
:105480009081809193068F5F8F732091940682178D
:1054900041F0E0919306F0E0E658F94F958F809344
:1054A0009306FF91EF919F918F912F910F900BBEDB
:1054B0000F900FBE0F901F9018958081F2CF1F9212
:1054C0000F920FB60F9211240BB60F922F933F93AA
:1054D0004F935F936F937F938F939F93AF93BF93FC
:1054E000EF93FF938AE796E0AFDDFF91EF91BF91D5
:1054F000AF919F918F917F916F915F914F913F916C
:105500002F910F900BBE0F900FBE0F901F9018950C
:10551000EAE7F6E01382128288EE93E0A0E0B0E0C2
:1055200084839583A683B7838AEB92E091838083FB
:1055300085ED90E09587848784ED90E09787868756
:1055400080ED90E0918B808B81ED90E0938B828B4E
:1055500082ED90E0958B848B86ED90E0978B868B27
:10556000118E128E138E148E08951F920F920FB605
:105570000F9211240BB60F922F938F939F93EF935B
:10558000FF93E0912707F09128078081E0912D0794
:10559000F0912E0782FD1DC09081809130078F5FB2
:1055A0008F7320913107821741F0E0913007F0E0CE
:1055B000E95EF84F958F80933007FF91EF919F91AF
:1055C0008F912F910F900BBE0F900FBE0F901F90D9
:1055D00018958081F2CF1F920F920FB60F9211246F
:1055E0000BB60F922F933F934F935F936F937F93DD
:1055F0008F939F93AF93BF93EF93FF9387E197E0D0
:1056000023DDFF91EF91BF91AF919F918F917F919A
:105610006F915F914F913F912F910F900BBE0F9023
:105620000FBE0F901F901895E7E1F7E013821282EA
:1056300088EE93E0A0E0B0E084839583A683B783EF
:105640008AEB92E09183808385E391E0958784875C
:1056500084E391E09787868780E391E0918B808B4C
:1056600081E391E0938B828B82E391E0958B848B35
:1056700086E391E0978B868B118E128E138E148E9B
:105680000895AF92BF92CF92DF92EF92FF920F9365
:105690001F93CF93DF936C017B018B01040F151FC8
:1056A000EB015E01AE18BF08C017D10759F0699130
:1056B000D601ED91FC910190F081E02DC601199584
:1056C000892B79F7C501DF91CF911F910F91FF9041
:1056D000EF90DF90CF90BF90AF9008950895A1E232
:1056E0001A2EAA1BBB1BFD010DC0AA1FBB1FEE1F5C
:1056F000FF1FA217B307E407F50720F0A21BB30BA7
:10570000E40BF50B661F771F881F991F1A9469F722
:1057100060957095809590959B01AC01BD01CF017E
:105720000895EE0FFF1F881F8BBF0790F691E02DA5
:10573000199409D0A59F900DB49F900DA49F800D42
:10574000911D11240895A29FB001B39FC001A39F92
:10575000700D811D1124911DB29F700D811D1124AA
:10576000911D0895FB01DC0102C001900D92415092
:105770005040D8F70895DC0101C06D93415050406E
:08578000E0F70895F894FFCF53
:1057880000007A440000803F00002041FEFFFFFF38
:1057980001E8030000FFFF00000000FFFFFFFFFF1C
:1057A800FFFFFFFFFFFFFFFFFF01DA02FF00270DEA
:1057B800530DFE000D0D8E0AFD009F0CF90CFC0028
:1057C800E50C8E0AF600D60D8E0AF500AC0C150E07
:1057D800F4009F0D2C0EDE005A12EF14DD00C713E3
:1057E8008E0ADA00E00FE80FD9000A15F80FE20078
:1057F800C80E8E0AE100030F8E0AE000780F8E0AA9
:10580800D600DD188E0AD50085118E0AD400111134
:105818008E0AD30082108E0AC00007108E0AF0008C
:1058280046198E0AED0003198E0A010001000100D5
:10583800080020003000000000006528412B1528D2
:085848004628E7270128F32799
:00000001FF
